{
  "address": "0x7F2f8C2B0c231E88e9428b2D988b88b351C2a2bc",
  "abi": [
    {
      "inputs": [
        {
          "internalType": "address",
          "name": "_owner",
          "type": "address"
        }
      ],
      "stateMutability": "nonpayable",
      "type": "constructor"
    },
    {
      "anonymous": false,
      "inputs": [
        {
          "indexed": true,
          "internalType": "address",
          "name": "user",
          "type": "address"
        },
        {
          "indexed": false,
          "internalType": "uint256",
          "name": "dailyLimit",
          "type": "uint256"
        },
        {
          "indexed": false,
          "internalType": "uint256",
          "name": "monthlyLimit",
          "type": "uint256"
        }
      ],
      "name": "BudgetUpdated",
      "type": "event"
    },
    {
      "anonymous": false,
      "inputs": [
        {
          "indexed": false,
          "internalType": "bool",
          "name": "stopped",
          "type": "bool"
        }
      ],
      "name": "EmergencyStopToggled",
      "type": "event"
    },
    {
      "anonymous": false,
      "inputs": [
        {
          "indexed": true,
          "internalType": "address",
          "name": "agent",
          "type": "address"
        },
        {
          "indexed": true,
          "internalType": "address",
          "name": "provider",
          "type": "address"
        },
        {
          "indexed": false,
          "internalType": "uint256",
          "name": "amount",
          "type": "uint256"
        },
        {
          "indexed": false,
          "internalType": "string",
          "name": "serviceType",
          "type": "string"
        },
        {
          "indexed": false,
          "internalType": "uint256",
          "name": "timestamp",
          "type": "uint256"
        }
      ],
      "name": "PaymentExecuted",
      "type": "event"
    },
    {
      "anonymous": false,
      "inputs": [
        {
          "indexed": true,
          "internalType": "address",
          "name": "provider",
          "type": "address"
        },
        {
          "indexed": false,
          "internalType": "string",
          "name": "apiEndpoint",
          "type": "string"
        },
        {
          "indexed": false,
          "internalType": "uint256",
          "name": "costPerCall",
          "type": "uint256"
        }
      ],
      "name": "ServiceProviderRegistered",
      "type": "event"
    },
    {
      "inputs": [
        {
          "internalType": "address",
          "name": "",
          "type": "address"
        }
      ],
      "name": "authorizedAgents",
      "outputs": [
        {
          "internalType": "bool",
          "name": "",
          "type": "bool"
        }
      ],
      "stateMutability": "view",
      "type": "function"
    },
    {
      "inputs": [
        {
          "internalType": "address",
          "name": "",
          "type": "address"
        }
      ],
      "name": "budgets",
      "outputs": [
        {
          "internalType": "uint256",
          "name": "dailyLimit",
          "type": "uint256"
        },
        {
          "internalType": "uint256",
          "name": "monthlyLimit",
          "type": "uint256"
        },
        {
          "internalType": "uint256",
          "name": "dailySpent",
          "type": "uint256"
        },
        {
          "internalType": "uint256",
          "name": "monthlySpent",
          "type": "uint256"
        },
        {
          "internalType": "uint256",
          "name": "lastDayReset",
          "type": "uint256"
        },
        {
          "internalType": "uint256",
          "name": "lastMonthReset",
          "type": "uint256"
        },
        {
          "internalType": "uint256",
          "name": "emergencyThreshold",
          "type": "uint256"
        },
        {
          "internalType": "bool",
          "name": "isActive",
          "type": "bool"
        }
      ],
      "stateMutability": "view",
      "type": "function"
    },
    {
      "inputs": [],
      "name": "emergencyStop",
      "outputs": [
        {
          "internalType": "bool",
          "name": "",
          "type": "bool"
        }
      ],
      "stateMutability": "view",
      "type": "function"
    },
    {
      "inputs": [
        {
          "internalType": "address",
          "name": "provider",
          "type": "address"
        },
        {
          "internalType": "uint256",
          "name": "amount",
          "type": "uint256"
        },
        {
          "internalType": "string",
          "name": "serviceType",
          "type": "string"
        }
      ],
      "name": "executePayment",
      "outputs": [],
      "stateMutability": "payable",
      "type": "function"
    },
    {
      "inputs": [
        {
          "internalType": "address",
          "name": "user",
          "type": "address"
        }
      ],
      "name": "getBudgetStatus",
      "outputs": [
        {
          "internalType": "uint256",
          "name": "dailyLimit",
          "type": "uint256"
        },
        {
          "internalType": "uint256",
          "name": "monthlyLimit",
          "type": "uint256"
        },
        {
          "internalType": "uint256",
          "name": "dailySpent",
          "type": "uint256"
        },
        {
          "internalType": "uint256",
          "name": "monthlySpent",
          "type": "uint256"
        },
        {
          "internalType": "uint256",
          "name": "dailyRemaining",
          "type": "uint256"
        },
        {
          "internalType": "uint256",
          "name": "monthlyRemaining",
          "type": "uint256"
        }
      ],
      "stateMutability": "view",
      "type": "function"
    },
    {
      "inputs": [
        {
          "internalType": "address",
          "name": "provider",
          "type": "address"
        }
      ],
      "name": "getServiceProvider",
      "outputs": [
        {
          "internalType": "string",
          "name": "apiEndpoint",
          "type": "string"
        },
        {
          "internalType": "uint256",
          "name": "costPerCall",
          "type": "uint256"
        },
        {
          "internalType": "uint256",
          "name": "reputationScore",
          "type": "uint256"
        },
        {
          "internalType": "bool",
          "name": "isActive",
          "type": "bool"
        },
        {
          "internalType": "uint256",
          "name": "providerPayments",
          "type": "uint256"
        }
      ],
      "stateMutability": "view",
      "type": "function"
    },
    {
      "inputs": [
        {
          "internalType": "address",
          "name": "user",
          "type": "address"
        }
      ],
      "name": "getUserPaymentHistory",
      "outputs": [
        {
          "internalType": "uint256[]",
          "name": "",
          "type": "uint256[]"
        }
      ],
      "stateMutability": "view",
      "type": "function"
    },
    {
      "inputs": [],
      "name": "owner",
      "outputs": [
        {
          "internalType": "address",
          "name": "",
          "type": "address"
        }
      ],
      "stateMutability": "view",
      "type": "function"
    },
    {
      "inputs": [
        {
          "internalType": "uint256",
          "name": "",
          "type": "uint256"
        }
      ],
      "name": "paymentHistory",
      "outputs": [
        {
          "internalType": "address",
          "name": "provider",
          "type": "address"
        },
        {
          "internalType": "uint256",
          "name": "amount",
          "type": "uint256"
        },
        {
          "internalType": "uint256",
          "name": "timestamp",
          "type": "uint256"
        },
        {
          "internalType": "string",
          "name": "serviceType",
          "type": "string"
        },
        {
          "internalType": "bool",
          "name": "successful",
          "type": "bool"
        }
      ],
      "stateMutability": "view",
      "type": "function"
    },
    {
      "inputs": [
        {
          "internalType": "address",
          "name": "provider",
          "type": "address"
        },
        {
          "internalType": "string",
          "name": "apiEndpoint",
          "type": "string"
        },
        {
          "internalType": "uint256",
          "name": "costPerCall",
          "type": "uint256"
        }
      ],
      "name": "registerServiceProvider",
      "outputs": [],
      "stateMutability": "nonpayable",
      "type": "function"
    },
    {
      "inputs": [
        {
          "internalType": "address",
          "name": "",
          "type": "address"
        }
      ],
      "name": "serviceProviders",
      "outputs": [
        {
          "internalType": "string",
          "name": "apiEndpoint",
          "type": "string"
        },
        {
          "internalType": "uint256",
          "name": "costPerCall",
          "type": "uint256"
        },
        {
          "internalType": "uint256",
          "name": "reputationScore",
          "type": "uint256"
        },
        {
          "internalType": "bool",
          "name": "isRegistered",
          "type": "bool"
        },
        {
          "internalType": "bool",
          "name": "isActive",
          "type": "bool"
        },
        {
          "internalType": "uint256",
          "name": "totalPayments",
          "type": "uint256"
        }
      ],
      "stateMutability": "view",
      "type": "function"
    },
    {
      "inputs": [
        {
          "internalType": "address",
          "name": "agent",
          "type": "address"
        },
        {
          "internalType": "bool",
          "name": "authorized",
          "type": "bool"
        }
      ],
      "name": "setAuthorizedAgent",
      "outputs": [],
      "stateMutability": "nonpayable",
      "type": "function"
    },
    {
      "inputs": [
        {
          "internalType": "uint256",
          "name": "dailyLimit",
          "type": "uint256"
        },
        {
          "internalType": "uint256",
          "name": "monthlyLimit",
          "type": "uint256"
        },
        {
          "internalType": "uint256",
          "name": "emergencyThreshold",
          "type": "uint256"
        }
      ],
      "name": "setBudget",
      "outputs": [],
      "stateMutability": "nonpayable",
      "type": "function"
    },
    {
      "inputs": [],
      "name": "toggleEmergencyStop",
      "outputs": [],
      "stateMutability": "nonpayable",
      "type": "function"
    },
    {
      "inputs": [],
      "name": "totalPayments",
      "outputs": [
        {
          "internalType": "uint256",
          "name": "",
          "type": "uint256"
        }
      ],
      "stateMutability": "view",
      "type": "function"
    },
    {
      "inputs": [],
      "name": "totalProviders",
      "outputs": [
        {
          "internalType": "uint256",
          "name": "",
          "type": "uint256"
        }
      ],
      "stateMutability": "view",
      "type": "function"
    },
    {
      "inputs": [
        {
          "internalType": "address",
          "name": "provider",
          "type": "address"
        },
        {
          "internalType": "bool",
          "name": "isActive",
          "type": "bool"
        }
      ],
      "name": "updateProviderStatus",
      "outputs": [],
      "stateMutability": "nonpayable",
      "type": "function"
    },
    {
      "inputs": [
        {
          "internalType": "address",
          "name": "",
          "type": "address"
        },
        {
          "internalType": "uint256",
          "name": "",
          "type": "uint256"
        }
      ],
      "name": "userPaymentHistory",
      "outputs": [
        {
          "internalType": "uint256",
          "name": "",
          "type": "uint256"
        }
      ],
      "stateMutability": "view",
      "type": "function"
    },
    {
      "inputs": [],
      "name": "withdraw",
      "outputs": [],
      "stateMutability": "nonpayable",
      "type": "function"
    },
    {
      "stateMutability": "payable",
      "type": "receive"
    }
  ],
  "transactionHash": "0x89b9e8cccf4fe365be41a5412e08efef9169135e3e652c0af3ed803b28352ae8",
  "args": [
    "0xB1E5B080fd1cDe4e2163Fd4b39fFf468E947978C"
  ],
  "numDeployments": 1,
  "solcInputHash": "b94ec3f8ac545c29fd338d359dfaaa8d",
  "bytecode": "0x60a06040526000805460ff19168155600181905560025534801561002257600080fd5b50604051611bbb380380611bbb8339810160408190526100419161006d565b6001600160a01b031660808190526000908152600460205260409020805460ff1916600117905561009d565b60006020828403121561007f57600080fd5b81516001600160a01b038116811461009657600080fd5b9392505050565b608051611ad26100e960003960008181610372015281816104a101528181610589015281816105ca0152818161068b0152818161072001528181610ee901526113110152611ad26000f3fe6080604052600436106101175760003560e01c8063847807b6116100a0578063a7ba975b11610064578063a7ba975b146103f3578063b185404f14610413578063d34baabb14610426578063efd7606514610446578063f67dce151461047657600080fd5b8063847807b6146102e25780638cc01c861461032f5780638da5cb5b1461036057806396616b1f146103ac578063a5e047b8146103c257600080fd5b80633ccfd60b116100e75780633ccfd60b1461023c5780634b7aac941461025157806363a599a41461026657806368003d5a146102905780636a0f4dd0146102b057600080fd5b80625b4487146101235780630e2738111461014c578063147e7e661461016e57806328db47261461020f57600080fd5b3661011e57005b600080fd5b34801561012f57600080fd5b5061013960015481565b6040519081526020015b60405180910390f35b34801561015857600080fd5b5061016c610167366004611528565b610496565b005b34801561017a57600080fd5b506101d2610189366004611564565b6003602081905260009182526040909120805460018201546002830154938301546004840154600585015460068601546007909601549496939593949293919290919060ff1688565b604080519889526020890197909752958701949094526060860192909252608085015260a084015260c0830152151560e082015261010001610143565b34801561021b57600080fd5b5061022f61022a366004611564565b610512565b6040516101439190611586565b34801561024857600080fd5b5061016c61057e565b34801561025d57600080fd5b5061016c610680565b34801561027257600080fd5b506000546102809060ff1681565b6040519015158152602001610143565b34801561029c57600080fd5b5061016c6102ab366004611528565b610715565b3480156102bc57600080fd5b506102d06102cb366004611564565b6107f6565b60405161014396959493929190611610565b3480156102ee57600080fd5b506103026102fd366004611564565b6108ba565b604080519687526020870195909552938501929092526060840152608083015260a082015260c001610143565b34801561033b57600080fd5b5061034f61034a366004611564565b6109cf565b60405161014395949392919061164e565b34801561036c57600080fd5b506103947f000000000000000000000000000000000000000000000000000000000000000081565b6040516001600160a01b039091168152602001610143565b3480156103b857600080fd5b5061013960025481565b3480156103ce57600080fd5b506103e26103dd366004611685565b610b0b565b60405161014395949392919061169e565b3480156103ff57600080fd5b5061013961040e3660046116df565b610bd1565b61016c6104213660046117ac565b610c02565b34801561043257600080fd5b5061016c610441366004611803565b611221565b34801561045257600080fd5b50610280610461366004611564565b60046020526000908152604090205460ff1681565b34801561048257600080fd5b5061016c61049136600461182f565b611306565b336001600160a01b037f000000000000000000000000000000000000000000000000000000000000000016146104e75760405162461bcd60e51b81526004016104de90611886565b60405180910390fd5b6001600160a01b03919091166000908152600460205260409020805460ff1916911515919091179055565b6001600160a01b03811660009081526007602090815260409182902080548351818402810184019094528084526060939283018282801561057257602002820191906000526020600020905b81548152602001906001019080831161055e575b50505050509050919050565b336001600160a01b037f000000000000000000000000000000000000000000000000000000000000000016146105c65760405162461bcd60e51b81526004016104de90611886565b60007f00000000000000000000000000000000000000000000000000000000000000006001600160a01b03164760405160006040518083038185875af1925050503d8060008114610633576040519150601f19603f3d011682016040523d82523d6000602084013e610638565b606091505b505090508061067d5760405162461bcd60e51b815260206004820152601160248201527015da5d1a191c985dd85b0819985a5b1959607a1b60448201526064016104de565b50565b336001600160a01b037f000000000000000000000000000000000000000000000000000000000000000016146106c85760405162461bcd60e51b81526004016104de90611886565b6000805460ff8082161560ff1990921682179092556040519116151581527f05b88d23d9a60b7924fccc370e1e0c1ccf49989e3b2968cafaf7db7fc13bd13f9060200160405180910390a1565b336001600160a01b037f0000000000000000000000000000000000000000000000000000000000000000161461075d5760405162461bcd60e51b81526004016104de90611886565b6001600160a01b03821660009081526005602052604090206003015460ff166107c25760405162461bcd60e51b8152602060048201526017602482015276141c9bdd9a59195c881b9bdd081c9959da5cdd195c9959604a1b60448201526064016104de565b6001600160a01b03909116600090815260056020526040902060030180549115156101000261ff0019909216919091179055565b600560205260009081526040902080548190610811906118ad565b80601f016020809104026020016040519081016040528092919081815260200182805461083d906118ad565b801561088a5780601f1061085f5761010080835404028352916020019161088a565b820191906000526020600020905b81548152906001019060200180831161086d57829003601f168201915b505050506001830154600284015460038501546004909501549394919390925060ff808316926101009004169086565b6001600160a01b03811660009081526003602081815260408084208151610100810183528154815260018201549381019390935260028101549183018290529283015460608301819052600484015460808401819052600585015460a0850152600685015460c085015260079094015460ff16151560e08401528493849384938493849361094b90620151806118fd565b421061095657600091505b60a08301516109689062278d006118fd565b4210610972575060005b825160208401518383818411610989576000610996565b8651610996908790611916565b858860200151116109a85760006109b8565b8588602001516109b89190611916565b949f939e50919c509a509850909650945050505050565b6060600080600080600060056000886001600160a01b03166001600160a01b031681526020019081526020016000206040518060c0016040529081600082018054610a19906118ad565b80601f0160208091040260200160405190810160405280929190818152602001828054610a45906118ad565b8015610a925780601f10610a6757610100808354040283529160200191610a92565b820191906000526020600020905b815481529060010190602001808311610a7557829003601f168201915b505050918352505060018201546020808301919091526002830154604080840191909152600384015460ff8082161515606086015261010090910416151560808085019190915260049094015460a09384015284519185015190850151938501519490920151909b919a50919850919650945092505050565b60066020526000908152604090208054600182015460028301546003840180546001600160a01b03909416949293919291610b45906118ad565b80601f0160208091040260200160405190810160405280929190818152602001828054610b71906118ad565b8015610bbe5780601f10610b9357610100808354040283529160200191610bbe565b820191906000526020600020905b815481529060010190602001808311610ba157829003601f168201915b5050506004909301549192505060ff1685565b60076020528160005260406000208181548110610bed57600080fd5b90600052602060002001600091509150505481565b3360009081526004602052604090205460ff16610c585760405162461bcd60e51b8152602060048201526014602482015273139bdd08185d5d1a1bdc9a5e9959081859d95b9d60621b60448201526064016104de565b60005460ff1615610cab5760405162461bcd60e51b815260206004820152601860248201527f456d657267656e63792073746f7020616374697661746564000000000000000060448201526064016104de565b6001600160a01b038316600090815260056020526040902060030154839060ff16610d125760405162461bcd60e51b8152602060048201526017602482015276141c9bdd9a59195c881b9bdd081c9959da5cdd195c9959604a1b60448201526064016104de565b6001600160a01b038116600090815260056020526040902060030154610100900460ff16610d785760405162461bcd60e51b815260206004820152601360248201527250726f7669646572206e6f742061637469766560681b60448201526064016104de565b82341015610dbf5760405162461bcd60e51b8152602060048201526014602482015273125b9cdd59999a58da595b9d081c185e5b595b9d60621b60448201526064016104de565b336000908152600360205260409020610dd7816114be565b600781015460ff16610e1f5760405162461bcd60e51b8152602060048201526011602482015270427564676574206e6f742061637469766560781b60448201526064016104de565b80546002820154610e319086906118fd565b1115610e765760405162461bcd60e51b815260206004820152601460248201527311185a5b1e481b1a5b5a5d08195e18d95959195960621b60448201526064016104de565b8060010154848260030154610e8b91906118fd565b1115610ed25760405162461bcd60e51b8152602060048201526016602482015275135bdb9d1a1b1e481b1a5b5a5d08195e18d95959195960521b60448201526064016104de565b8060060154841115610f6157336001600160a01b037f00000000000000000000000000000000000000000000000000000000000000001614610f615760405162461bcd60e51b815260206004820152602260248201527f416d6f756e74206578636565647320656d657267656e6379207468726573686f6044820152611b1960f21b60648201526084016104de565b6000856001600160a01b03168560405160006040518083038185875af1925050503d8060008114610fae576040519150601f19603f3d011682016040523d82523d6000602084013e610fb3565b606091505b5050905080610ff55760405162461bcd60e51b815260206004820152600e60248201526d14185e5b595b9d0819985a5b195960921b60448201526064016104de565b8482600201600082825461100991906118fd565b925050819055508482600301600082825461102491906118fd565b90915550506001600160a01b038616600090815260056020526040812060040180548792906110549084906118fd565b90915550506040805160a0810182526001600160a01b038881168252602080830189815242848601908152606085018a815260016080870181905280546000908152600690955296909320855181546001600160a01b03191695169490941784559051948301949094559251600282015591519091829160038201906110da9082611978565b50608091909101516004909101805460ff1916911515919091179055336000908152600760209081526040822060018054825480830184559285529284209091019190915580549161112b83611a38565b9190505550866001600160a01b0316336001600160a01b03167f301a7ee10cd2a20ba3341e891d2a22448dc29f9ab05956da5c04ee1d405c728f88884260405161117793929190611a51565b60405180910390a385341115611218576000336111948834611916565b604051600081818185875af1925050503d80600081146111d0576040519150601f19603f3d011682016040523d82523d6000602084013e6111d5565b606091505b50509050806112165760405162461bcd60e51b815260206004820152600d60248201526c1499599d5b990819985a5b1959609a1b60448201526064016104de565b505b50505050505050565b8183111561127b5760405162461bcd60e51b815260206004820152602160248201527f4461696c79206c696d69742063616e6e6f7420657863656564206d6f6e74686c6044820152607960f81b60648201526084016104de565b33600090815260036020526040812084815560018082018590556006820184905560078201805460ff1916909117905560048101549091036112c557426004820181905560058201555b604080518581526020810185905233917f26bfb450c30fba5d1cf6fcd1b14d78784830b1de999354ddf4a0df2a187d651f910160405180910390a250505050565b336001600160a01b037f0000000000000000000000000000000000000000000000000000000000000000161461134e5760405162461bcd60e51b81526004016104de90611886565b6001600160a01b03831660009081526005602052604090206003015460ff16156113ba5760405162461bcd60e51b815260206004820152601b60248201527f50726f766964657220616c72656164792072656769737465726564000000000060448201526064016104de565b6040805160c08101825283815260208082018490526064828401526001606083018190526080830152600060a083018190526001600160a01b03871681526005909152919091208151819061140f9082611978565b506020820151600182015560408201516002808301919091556060830151600383018054608086015115156101000261ff00199315159390931661ffff199091161791909117905560a090920151600490910155805490600061147183611a38565b9190505550826001600160a01b03167fee67356e6cb4e05b5baa8f2d105821614f357a1a06fc9bf52e810581eede7b0d83836040516114b1929190611a7a565b60405180910390a2505050565b60048101546114d090620151806118fd565b42106114e457600060028201554260048201555b60058101546114f69062278d006118fd565b421061067d576000600382015542600582015550565b80356001600160a01b038116811461152357600080fd5b919050565b6000806040838503121561153b57600080fd5b6115448361150c565b91506020830135801515811461155957600080fd5b809150509250929050565b60006020828403121561157657600080fd5b61157f8261150c565b9392505050565b6020808252825182820181905260009190848201906040850190845b818110156115be578351835292840192918401916001016115a2565b50909695505050505050565b6000815180845260005b818110156115f0576020818501810151868301820152016115d4565b506000602082860101526020601f19601f83011685010191505092915050565b60c08152600061162360c08301896115ca565b602083019790975250604081019490945291151560608401521515608083015260a090910152919050565b60a08152600061166160a08301886115ca565b60208301969096525060408101939093529015156060830152608090910152919050565b60006020828403121561169757600080fd5b5035919050565b60018060a01b038616815284602082015283604082015260a0606082015260006116cb60a08301856115ca565b905082151560808301529695505050505050565b600080604083850312156116f257600080fd5b6116fb8361150c565b946020939093013593505050565b634e487b7160e01b600052604160045260246000fd5b600082601f83011261173057600080fd5b813567ffffffffffffffff8082111561174b5761174b611709565b604051601f8301601f19908116603f0116810190828211818310171561177357611773611709565b8160405283815286602085880101111561178c57600080fd5b836020870160208301376000602085830101528094505050505092915050565b6000806000606084860312156117c157600080fd5b6117ca8461150c565b925060208401359150604084013567ffffffffffffffff8111156117ed57600080fd5b6117f98682870161171f565b9150509250925092565b60008060006060848603121561181857600080fd5b505081359360208301359350604090920135919050565b60008060006060848603121561184457600080fd5b61184d8461150c565b9250602084013567ffffffffffffffff81111561186957600080fd5b6118758682870161171f565b925050604084013590509250925092565b6020808252600d908201526c2737ba103a34329037bbb732b960991b604082015260600190565b600181811c908216806118c157607f821691505b6020821081036118e157634e487b7160e01b600052602260045260246000fd5b50919050565b634e487b7160e01b600052601160045260246000fd5b80820180821115611910576119106118e7565b92915050565b81810381811115611910576119106118e7565b601f82111561197357600081815260208120601f850160051c810160208610156119505750805b601f850160051c820191505b8181101561196f5782815560010161195c565b5050505b505050565b815167ffffffffffffffff81111561199257611992611709565b6119a6816119a084546118ad565b84611929565b602080601f8311600181146119db57600084156119c35750858301515b600019600386901b1c1916600185901b17855561196f565b600085815260208120601f198616915b82811015611a0a578886015182559484019460019091019084016119eb565b5085821015611a285787850151600019600388901b60f8161c191681555b5050505050600190811b01905550565b600060018201611a4a57611a4a6118e7565b5060010190565b838152606060208201526000611a6a60608301856115ca565b9050826040830152949350505050565b604081526000611a8d60408301856115ca565b9050826020830152939250505056fea264697066735822122088bd815771c4bf34e566c7aaca082924e66fb7bef08f302b633ae50ec5ee73e464736f6c63430008140033",
  "devdoc": {
    "author": "Agentic Stablecoin Team",
    "kind": "dev",
    "methods": {},
    "version": 1
  },
  "userdoc": {
    "kind": "user",
    "methods": {
      "executePayment(address,uint256,string)": {
        "notice": "Execute payment to a service provider"
      },
      "getBudgetStatus(address)": {
        "notice": "Get user's current budget status"
      },
      "getServiceProvider(address)": {
        "notice": "Get service provider details"
      },
      "getUserPaymentHistory(address)": {
        "notice": "Get payment history for a user"
      },
      "registerServiceProvider(address,string,uint256)": {
        "notice": "Register a new service provider"
      },
      "setAuthorizedAgent(address,bool)": {
        "notice": "Add/remove authorized agents"
      },
      "setBudget(uint256,uint256,uint256)": {
        "notice": "Set budget limits for an agent"
      },
      "toggleEmergencyStop()": {
        "notice": "Emergency stop functionality"
      },
      "updateProviderStatus(address,bool)": {
        "notice": "Update service provider status"
      },
      "withdraw()": {
        "notice": "Withdraw contract balance (owner only)"
      }
    },
    "notice": "Autonomous Payment Controller for Agentic Stablecoin System Manages automated payments to service providers with budget controls",
    "version": 1
  },
  "storageLayout": {
    "storage": [
      {
        "astId": 49,
        "contract": "contracts/PaymentController.sol:PaymentController",
        "label": "emergencyStop",
        "offset": 0,
        "slot": "0",
        "type": "t_bool"
      },
      {
        "astId": 52,
        "contract": "contracts/PaymentController.sol:PaymentController",
        "label": "totalPayments",
        "offset": 0,
        "slot": "1",
        "type": "t_uint256"
      },
      {
        "astId": 55,
        "contract": "contracts/PaymentController.sol:PaymentController",
        "label": "totalProviders",
        "offset": 0,
        "slot": "2",
        "type": "t_uint256"
      },
      {
        "astId": 60,
        "contract": "contracts/PaymentController.sol:PaymentController",
        "label": "budgets",
        "offset": 0,
        "slot": "3",
        "type": "t_mapping(t_address,t_struct(Budget)20_storage)"
      },
      {
        "astId": 64,
        "contract": "contracts/PaymentController.sol:PaymentController",
        "label": "authorizedAgents",
        "offset": 0,
        "slot": "4",
        "type": "t_mapping(t_address,t_bool)"
      },
      {
        "astId": 69,
        "contract": "contracts/PaymentController.sol:PaymentController",
        "label": "serviceProviders",
        "offset": 0,
        "slot": "5",
        "type": "t_mapping(t_address,t_struct(ServiceProvider)33_storage)"
      },
      {
        "astId": 74,
        "contract": "contracts/PaymentController.sol:PaymentController",
        "label": "paymentHistory",
        "offset": 0,
        "slot": "6",
        "type": "t_mapping(t_uint256,t_struct(PaymentRecord)44_storage)"
      },
      {
        "astId": 79,
        "contract": "contracts/PaymentController.sol:PaymentController",
        "label": "userPaymentHistory",
        "offset": 0,
        "slot": "7",
        "type": "t_mapping(t_address,t_array(t_uint256)dyn_storage)"
      }
    ],
    "types": {
      "t_address": {
        "encoding": "inplace",
        "label": "address",
        "numberOfBytes": "20"
      },
      "t_array(t_uint256)dyn_storage": {
        "base": "t_uint256",
        "encoding": "dynamic_array",
        "label": "uint256[]",
        "numberOfBytes": "32"
      },
      "t_bool": {
        "encoding": "inplace",
        "label": "bool",
        "numberOfBytes": "1"
      },
      "t_mapping(t_address,t_array(t_uint256)dyn_storage)": {
        "encoding": "mapping",
        "key": "t_address",
        "label": "mapping(address => uint256[])",
        "numberOfBytes": "32",
        "value": "t_array(t_uint256)dyn_storage"
      },
      "t_mapping(t_address,t_bool)": {
        "encoding": "mapping",
        "key": "t_address",
        "label": "mapping(address => bool)",
        "numberOfBytes": "32",
        "value": "t_bool"
      },
      "t_mapping(t_address,t_struct(Budget)20_storage)": {
        "encoding": "mapping",
        "key": "t_address",
        "label": "mapping(address => struct PaymentController.Budget)",
        "numberOfBytes": "32",
        "value": "t_struct(Budget)20_storage"
      },
      "t_mapping(t_address,t_struct(ServiceProvider)33_storage)": {
        "encoding": "mapping",
        "key": "t_address",
        "label": "mapping(address => struct PaymentController.ServiceProvider)",
        "numberOfBytes": "32",
        "value": "t_struct(ServiceProvider)33_storage"
      },
      "t_mapping(t_uint256,t_struct(PaymentRecord)44_storage)": {
        "encoding": "mapping",
        "key": "t_uint256",
        "label": "mapping(uint256 => struct PaymentController.PaymentRecord)",
        "numberOfBytes": "32",
        "value": "t_struct(PaymentRecord)44_storage"
      },
      "t_string_storage": {
        "encoding": "bytes",
        "label": "string",
        "numberOfBytes": "32"
      },
      "t_struct(Budget)20_storage": {
        "encoding": "inplace",
        "label": "struct PaymentController.Budget",
        "members": [
          {
            "astId": 5,
            "contract": "contracts/PaymentController.sol:PaymentController",
            "label": "dailyLimit",
            "offset": 0,
            "slot": "0",
            "type": "t_uint256"
          },
          {
            "astId": 7,
            "contract": "contracts/PaymentController.sol:PaymentController",
            "label": "monthlyLimit",
            "offset": 0,
            "slot": "1",
            "type": "t_uint256"
          },
          {
            "astId": 9,
            "contract": "contracts/PaymentController.sol:PaymentController",
            "label": "dailySpent",
            "offset": 0,
            "slot": "2",
            "type": "t_uint256"
          },
          {
            "astId": 11,
            "contract": "contracts/PaymentController.sol:PaymentController",
            "label": "monthlySpent",
            "offset": 0,
            "slot": "3",
            "type": "t_uint256"
          },
          {
            "astId": 13,
            "contract": "contracts/PaymentController.sol:PaymentController",
            "label": "lastDayReset",
            "offset": 0,
            "slot": "4",
            "type": "t_uint256"
          },
          {
            "astId": 15,
            "contract": "contracts/PaymentController.sol:PaymentController",
            "label": "lastMonthReset",
            "offset": 0,
            "slot": "5",
            "type": "t_uint256"
          },
          {
            "astId": 17,
            "contract": "contracts/PaymentController.sol:PaymentController",
            "label": "emergencyThreshold",
            "offset": 0,
            "slot": "6",
            "type": "t_uint256"
          },
          {
            "astId": 19,
            "contract": "contracts/PaymentController.sol:PaymentController",
            "label": "isActive",
            "offset": 0,
            "slot": "7",
            "type": "t_bool"
          }
        ],
        "numberOfBytes": "256"
      },
      "t_struct(PaymentRecord)44_storage": {
        "encoding": "inplace",
        "label": "struct PaymentController.PaymentRecord",
        "members": [
          {
            "astId": 35,
            "contract": "contracts/PaymentController.sol:PaymentController",
            "label": "provider",
            "offset": 0,
            "slot": "0",
            "type": "t_address"
          },
          {
            "astId": 37,
            "contract": "contracts/PaymentController.sol:PaymentController",
            "label": "amount",
            "offset": 0,
            "slot": "1",
            "type": "t_uint256"
          },
          {
            "astId": 39,
            "contract": "contracts/PaymentController.sol:PaymentController",
            "label": "timestamp",
            "offset": 0,
            "slot": "2",
            "type": "t_uint256"
          },
          {
            "astId": 41,
            "contract": "contracts/PaymentController.sol:PaymentController",
            "label": "serviceType",
            "offset": 0,
            "slot": "3",
            "type": "t_string_storage"
          },
          {
            "astId": 43,
            "contract": "contracts/PaymentController.sol:PaymentController",
            "label": "successful",
            "offset": 0,
            "slot": "4",
            "type": "t_bool"
          }
        ],
        "numberOfBytes": "160"
      },
      "t_struct(ServiceProvider)33_storage": {
        "encoding": "inplace",
        "label": "struct PaymentController.ServiceProvider",
        "members": [
          {
            "astId": 22,
            "contract": "contracts/PaymentController.sol:PaymentController",
            "label": "apiEndpoint",
            "offset": 0,
            "slot": "0",
            "type": "t_string_storage"
          },
          {
            "astId": 24,
            "contract": "contracts/PaymentController.sol:PaymentController",
            "label": "costPerCall",
            "offset": 0,
            "slot": "1",
            "type": "t_uint256"
          },
          {
            "astId": 26,
            "contract": "contracts/PaymentController.sol:PaymentController",
            "label": "reputationScore",
            "offset": 0,
            "slot": "2",
            "type": "t_uint256"
          },
          {
            "astId": 28,
            "contract": "contracts/PaymentController.sol:PaymentController",
            "label": "isRegistered",
            "offset": 0,
            "slot": "3",
            "type": "t_bool"
          },
          {
            "astId": 30,
            "contract": "contracts/PaymentController.sol:PaymentController",
            "label": "isActive",
            "offset": 1,
            "slot": "3",
            "type": "t_bool"
          },
          {
            "astId": 32,
            "contract": "contracts/PaymentController.sol:PaymentController",
            "label": "totalPayments",
            "offset": 0,
            "slot": "4",
            "type": "t_uint256"
          }
        ],
        "numberOfBytes": "160"
      },
      "t_uint256": {
        "encoding": "inplace",
        "label": "uint256",
        "numberOfBytes": "32"
      }
    }
  }
}